{"abi":[{"type":"constructor","inputs":[{"name":"_treasury","type":"address","internalType":"address"}],"stateMutability":"nonpayable"},{"type":"function","name":"addGuest","inputs":[{"name":"reservationId","type":"uint256","internalType":"uint256"},{"name":"guest","type":"address","internalType":"address"}],"outputs":[],"stateMutability":"nonpayable"},{"type":"function","name":"createListing","inputs":[{"name":"name","type":"string","internalType":"string"},{"name":"location","type":"string","internalType":"string"},{"name":"metadataURI","type":"string","internalType":"string"},{"name":"paymentToken","type":"address","internalType":"address"},{"name":"nightlyRate","type":"uint256","internalType":"uint256"},{"name":"maxGuests","type":"uint8","internalType":"uint8"},{"name":"privDataHash","type":"bytes32","internalType":"bytes32"},{"name":"encPrivDataCid","type":"string","internalType":"string"},{"name":"requireProof","type":"bool","internalType":"bool"}],"outputs":[{"name":"id","type":"uint256","internalType":"uint256"}],"stateMutability":"nonpayable"},{"type":"function","name":"createReservation","inputs":[{"name":"a","type":"tuple","internalType":"struct HackerHouseProtocol.CreateResArgs","components":[{"name":"listingId","type":"uint256","internalType":"uint256"},{"name":"startDate","type":"uint64","internalType":"uint64"},{"name":"endDate","type":"uint64","internalType":"uint64"},{"name":"nights","type":"uint256","internalType":"uint256"},{"name":"payers","type":"address[]","internalType":"address[]"},{"name":"bps","type":"uint16[]","internalType":"uint16[]"}]},{"name":"p","type":"tuple","internalType":"struct HackerHouseProtocol.EligibilityProof","components":[{"name":"expiry","type":"uint256","internalType":"uint256"},{"name":"nonce","type":"uint256","internalType":"uint256"},{"name":"sig","type":"bytes","internalType":"bytes"}]}],"outputs":[{"name":"rid","type":"uint256","internalType":"uint256"}],"stateMutability":"nonpayable"},{"type":"function","name":"eip712Domain","inputs":[],"outputs":[{"name":"fields","type":"bytes1","internalType":"bytes1"},{"name":"name","type":"string","internalType":"string"},{"name":"version","type":"string","internalType":"string"},{"name":"chainId","type":"uint256","internalType":"uint256"},{"name":"verifyingContract","type":"address","internalType":"address"},{"name":"salt","type":"bytes32","internalType":"bytes32"},{"name":"extensions","type":"uint256[]","internalType":"uint256[]"}],"stateMutability":"view"},{"type":"function","name":"fundReservation","inputs":[{"name":"reservationId","type":"uint256","internalType":"uint256"},{"name":"amount","type":"uint256","internalType":"uint256"}],"outputs":[],"stateMutability":"nonpayable"},{"type":"function","name":"getReservationGuests","inputs":[{"name":"reservationId","type":"uint256","internalType":"uint256"}],"outputs":[{"name":"","type":"address[]","internalType":"address[]"}],"stateMutability":"view"},{"type":"function","name":"getReservationPayers","inputs":[{"name":"reservationId","type":"uint256","internalType":"uint256"}],"outputs":[{"name":"","type":"address[]","internalType":"address[]"}],"stateMutability":"view"},{"type":"function","name":"getReservationSplitsBps","inputs":[{"name":"reservationId","type":"uint256","internalType":"uint256"}],"outputs":[{"name":"","type":"uint16[]","internalType":"uint16[]"}],"stateMutability":"view"},{"type":"function","name":"listings","inputs":[{"name":"","type":"uint256","internalType":"uint256"}],"outputs":[{"name":"builder","type":"address","internalType":"address"},{"name":"name","type":"string","internalType":"string"},{"name":"location","type":"string","internalType":"string"},{"name":"metadataURI","type":"string","internalType":"string"},{"name":"paymentToken","type":"address","internalType":"address"},{"name":"nightlyRate","type":"uint256","internalType":"uint256"},{"name":"maxGuests","type":"uint8","internalType":"uint8"},{"name":"active","type":"bool","internalType":"bool"},{"name":"privDataHash","type":"bytes32","internalType":"bytes32"},{"name":"encPrivDataCid","type":"string","internalType":"string"},{"name":"requireProof","type":"bool","internalType":"bool"}],"stateMutability":"view"},{"type":"function","name":"nextListingId","inputs":[],"outputs":[{"name":"","type":"uint256","internalType":"uint256"}],"stateMutability":"view"},{"type":"function","name":"nextReservationId","inputs":[],"outputs":[{"name":"","type":"uint256","internalType":"uint256"}],"stateMutability":"view"},{"type":"function","name":"owner","inputs":[],"outputs":[{"name":"","type":"address","internalType":"address"}],"stateMutability":"view"},{"type":"function","name":"protocolFeeBps","inputs":[],"outputs":[{"name":"","type":"uint96","internalType":"uint96"}],"stateMutability":"view"},{"type":"function","name":"renounceOwnership","inputs":[],"outputs":[],"stateMutability":"nonpayable"},{"type":"function","name":"reservations","inputs":[{"name":"","type":"uint256","internalType":"uint256"}],"outputs":[{"name":"listingId","type":"uint256","internalType":"uint256"},{"name":"renter","type":"address","internalType":"address"},{"name":"startDate","type":"uint64","internalType":"uint64"},{"name":"endDate","type":"uint64","internalType":"uint64"},{"name":"totalDue","type":"uint256","internalType":"uint256"},{"name":"amountPaid","type":"uint256","internalType":"uint256"},{"name":"active","type":"bool","internalType":"bool"}],"stateMutability":"view"},{"type":"function","name":"setProtocolFeeBps","inputs":[{"name":"_bps","type":"uint96","internalType":"uint96"}],"outputs":[],"stateMutability":"nonpayable"},{"type":"function","name":"setTreasury","inputs":[{"name":"_treasury","type":"address","internalType":"address"}],"outputs":[],"stateMutability":"nonpayable"},{"type":"function","name":"setVerifier","inputs":[{"name":"v","type":"address","internalType":"address"}],"outputs":[],"stateMutability":"nonpayable"},{"type":"function","name":"transferOwnership","inputs":[{"name":"newOwner","type":"address","internalType":"address"}],"outputs":[],"stateMutability":"nonpayable"},{"type":"function","name":"treasury","inputs":[],"outputs":[{"name":"","type":"address","internalType":"address"}],"stateMutability":"view"},{"type":"function","name":"updateListing","inputs":[{"name":"listingId","type":"uint256","internalType":"uint256"},{"name":"name","type":"string","internalType":"string"},{"name":"location","type":"string","internalType":"string"},{"name":"metadataURI","type":"string","internalType":"string"},{"name":"paymentToken","type":"address","internalType":"address"},{"name":"nightlyRate","type":"uint256","internalType":"uint256"},{"name":"maxGuests","type":"uint8","internalType":"uint8"},{"name":"active","type":"bool","internalType":"bool"}],"outputs":[],"stateMutability":"nonpayable"},{"type":"function","name":"updateListingPrivateData","inputs":[{"name":"listingId","type":"uint256","internalType":"uint256"},{"name":"privDataHash","type":"bytes32","internalType":"bytes32"},{"name":"encPrivDataCid","type":"string","internalType":"string"}],"outputs":[],"stateMutability":"nonpayable"},{"type":"function","name":"updateListingRequireProof","inputs":[{"name":"listingId","type":"uint256","internalType":"uint256"},{"name":"requireProof","type":"bool","internalType":"bool"}],"outputs":[],"stateMutability":"nonpayable"},{"type":"function","name":"usedProof","inputs":[{"name":"","type":"bytes32","internalType":"bytes32"}],"outputs":[{"name":"","type":"bool","internalType":"bool"}],"stateMutability":"view"},{"type":"function","name":"verifier","inputs":[],"outputs":[{"name":"","type":"address","internalType":"address"}],"stateMutability":"view"},{"type":"function","name":"withdraw","inputs":[{"name":"reservationId","type":"uint256","internalType":"uint256"},{"name":"to","type":"address","internalType":"address"}],"outputs":[],"stateMutability":"nonpayable"},{"type":"event","name":"CoPayersSet","inputs":[{"name":"reservationId","type":"uint256","indexed":true,"internalType":"uint256"},{"name":"payers","type":"address[]","indexed":false,"internalType":"address[]"},{"name":"bps","type":"uint16[]","indexed":false,"internalType":"uint16[]"}],"anonymous":false},{"type":"event","name":"EIP712DomainChanged","inputs":[],"anonymous":false},{"type":"event","name":"FundsWithdrawn","inputs":[{"name":"reservationId","type":"uint256","indexed":true,"internalType":"uint256"},{"name":"to","type":"address","indexed":true,"internalType":"address"},{"name":"builderAmount","type":"uint256","indexed":false,"internalType":"uint256"},{"name":"protocolFee","type":"uint256","indexed":false,"internalType":"uint256"}],"anonymous":false},{"type":"event","name":"GuestAdded","inputs":[{"name":"reservationId","type":"uint256","indexed":true,"internalType":"uint256"},{"name":"addedBy","type":"address","indexed":true,"internalType":"address"},{"name":"guest","type":"address","indexed":true,"internalType":"address"}],"anonymous":false},{"type":"event","name":"ListingCreatedBasic","inputs":[{"name":"listingId","type":"uint256","indexed":true,"internalType":"uint256"},{"name":"builder","type":"address","indexed":true,"internalType":"address"},{"name":"paymentToken","type":"address","indexed":true,"internalType":"address"},{"name":"nameHash","type":"bytes32","indexed":false,"internalType":"bytes32"},{"name":"locationHash","type":"bytes32","indexed":false,"internalType":"bytes32"},{"name":"nightlyRate","type":"uint256","indexed":false,"internalType":"uint256"},{"name":"maxGuests","type":"uint8","indexed":false,"internalType":"uint8"},{"name":"requireProof","type":"bool","indexed":false,"internalType":"bool"}],"anonymous":false},{"type":"event","name":"ListingMetadataURISet","inputs":[{"name":"listingId","type":"uint256","indexed":true,"internalType":"uint256"},{"name":"metadataURI","type":"string","indexed":false,"internalType":"string"}],"anonymous":false},{"type":"event","name":"ListingPrivateDataSet","inputs":[{"name":"listingId","type":"uint256","indexed":true,"internalType":"uint256"},{"name":"privDataHash","type":"bytes32","indexed":false,"internalType":"bytes32"},{"name":"encPrivDataCid","type":"string","indexed":false,"internalType":"string"}],"anonymous":false},{"type":"event","name":"ListingRequireProofUpdated","inputs":[{"name":"listingId","type":"uint256","indexed":true,"internalType":"uint256"},{"name":"requireProof","type":"bool","indexed":false,"internalType":"bool"}],"anonymous":false},{"type":"event","name":"ListingUpdatedBasic","inputs":[{"name":"listingId","type":"uint256","indexed":true,"internalType":"uint256"},{"name":"builder","type":"address","indexed":true,"internalType":"address"},{"name":"paymentToken","type":"address","indexed":true,"internalType":"address"},{"name":"nameHash","type":"bytes32","indexed":false,"internalType":"bytes32"},{"name":"locationHash","type":"bytes32","indexed":false,"internalType":"bytes32"},{"name":"nightlyRate","type":"uint256","indexed":false,"internalType":"uint256"},{"name":"maxGuests","type":"uint8","indexed":false,"internalType":"uint8"},{"name":"active","type":"bool","indexed":false,"internalType":"bool"}],"anonymous":false},{"type":"event","name":"OwnershipTransferred","inputs":[{"name":"previousOwner","type":"address","indexed":true,"internalType":"address"},{"name":"newOwner","type":"address","indexed":true,"internalType":"address"}],"anonymous":false},{"type":"event","name":"ProtocolFeeUpdated","inputs":[{"name":"feeBps","type":"uint96","indexed":false,"internalType":"uint96"}],"anonymous":false},{"type":"event","name":"ReservationCreated","inputs":[{"name":"reservationId","type":"uint256","indexed":true,"internalType":"uint256"},{"name":"listingId","type":"uint256","indexed":true,"internalType":"uint256"},{"name":"renter","type":"address","indexed":true,"internalType":"address"},{"name":"startDate","type":"uint64","indexed":false,"internalType":"uint64"},{"name":"endDate","type":"uint64","indexed":false,"internalType":"uint64"},{"name":"totalDue","type":"uint256","indexed":false,"internalType":"uint256"}],"anonymous":false},{"type":"event","name":"ReservationFunded","inputs":[{"name":"reservationId","type":"uint256","indexed":true,"internalType":"uint256"},{"name":"payer","type":"address","indexed":true,"internalType":"address"},{"name":"amount","type":"uint256","indexed":false,"internalType":"uint256"},{"name":"newTotalPaid","type":"uint256","indexed":false,"internalType":"uint256"},{"name":"activated","type":"bool","indexed":false,"internalType":"bool"}],"anonymous":false},{"type":"event","name":"TreasuryUpdated","inputs":[{"name":"treasury","type":"address","indexed":true,"internalType":"address"}],"anonymous":false},{"type":"event","name":"VerifierUpdated","inputs":[{"name":"verifier","type":"address","indexed":true,"internalType":"address"}],"anonymous":false},{"type":"error","name":"AddressEmptyCode","inputs":[{"name":"target","type":"address","internalType":"address"}]},{"type":"error","name":"AddressInsufficientBalance","inputs":[{"name":"account","type":"address","internalType":"address"}]},{"type":"error","name":"ECDSAInvalidSignature","inputs":[]},{"type":"error","name":"ECDSAInvalidSignatureLength","inputs":[{"name":"length","type":"uint256","internalType":"uint256"}]},{"type":"error","name":"ECDSAInvalidSignatureS","inputs":[{"name":"s","type":"bytes32","internalType":"bytes32"}]},{"type":"error","name":"FailedInnerCall","inputs":[]},{"type":"error","name":"InvalidShortString","inputs":[]},{"type":"error","name":"OwnableInvalidOwner","inputs":[{"name":"owner","type":"address","internalType":"address"}]},{"type":"error","name":"OwnableUnauthorizedAccount","inputs":[{"name":"account","type":"address","internalType":"address"}]},{"type":"error","name":"ReentrancyGuardReentrantCall","inputs":[]},{"type":"error","name":"SafeERC20FailedOperation","inputs":[{"name":"token","type":"address","internalType":"address"}]},{"type":"error","name":"StringTooLong","inputs":[{"name":"str","type":"string","internalType":"string"}]}],"bytecode":{"object":"0x6101608060405234610245576020816149cc8038038091610020828561024a565b83398101031261024557516001600160a01b038116908190036102455760405161004b60408261024a565b6013815260208101907f4861636b6572486f75736550726f746f636f6c0000000000000000000000000082526040519161008660408461024a565b600183526020830191603160f81b8352331561022f5760008054336001600160a01b0319821681178355916001600160a01b03909116907f8be0079c531659141344cd1fd0a4f28419497f9722a3daafe3b4186f6b6457e09080a3600180556100ee81610283565b610120526100fb84610447565b61014052519020918260e05251902080610100524660a0526040519060208201927f8b73c3c69bb8fe3d512ecc4cf759cc79239f7b179b0ffacaa9a75d522b39400f8452604083015260608201524660808201523060a082015260a0815261016460c08261024a565b5190206080523060c05280156101fd57600480546001600160a01b03191682179055604051907f7dae230f18360d76a040c81f050aa14eb9d6dc7901b20fc5d855e2a20fe814d1600080a26143e690816105e6823960805181614066015260a05181614123015260c05181614037015260e051816140b5015261010051816140db01526101205181610be901526101405181610c120152f35b60405162461bcd60e51b815260206004820152600a602482015269074726561737572793d360b41b6044820152606490fd5b631e4fbdf760e01b600052600060045260246000fd5b600080fd5b601f909101601f19168101906001600160401b0382119082101761026d57604052565b634e487b7160e01b600052604160045260246000fd5b9081516020811060001461031b575090601f8151116102bf5760208151910151602082106102af571790565b6000198260200360031b1b161790565b6040519063305a27a960e01b8252602060048301528181519182602483015260005b8381106103035750508160006044809484010152601f80199101168101030190fd5b602082820181015160448784010152859350016102e1565b6001600160401b03811161026d57600254600181811c9116801561043d575b602082101461042757601f81116103f1575b50602092601f821160011461038c5792819293600092610381575b50508160011b916000199060031b1c19161760025560ff90565b015190503880610367565b601f198216936002600052806000209160005b8681106103d957508360019596106103c0575b505050811b0160025560ff90565b015160001960f88460031b161c191690553880806103b2565b9192602060018192868501518155019401920161039f565b6002600052601f6020600020910160051c810190601f830160051c015b81811061041b575061034c565b6000815560010161040e565b634e487b7160e01b600052602260045260246000fd5b90607f169061033a565b908151602081106000146104cf575090601f8151116104735760208151910151602082106102af571790565b6040519063305a27a960e01b8252602060048301528181519182602483015260005b8381106104b75750508160006044809484010152601f80199101168101030190fd5b60208282018101516044878401015285935001610495565b6001600160401b03811161026d57600354600181811c911680156105db575b602082101461042757601f81116105a5575b50602092601f82116001146105405792819293600092610535575b50508160011b916000199060031b1c19161760035560ff90565b01519050388061051b565b601f198216936003600052806000209160005b86811061058d5750836001959610610574575b505050811b0160035560ff90565b015160001960f88460031b161c19169055388080610566565b91926020600181928685015181550194019201610553565b6003600052601f6020600020910160051c810190601f830160051c015b8181106105cf5750610500565b600081556001016105c2565b90607f16906104ee56fe6101c0604052600436101561001357600080fd5b60003560e01c8062f714ce146135a2578063067cf832146134e95780631bc773c714612e0e5780631ea29c34146122b75780632833643c14611f205780632b7ac3f314611ece57806335659fb814611e8f5780635437988d14611d8557806361d027b314611d335780636e20ffbd14611ce4578063715018a614611c4857806377f281bf146119715780637b73ab001461173c57806383babb2f14610ce957806384b0196e14610bb25780638ca9503914610adf5780638da5cb5b14610a8d578063aaccf1ec14610a51578063c5f0d91614610927578063c70c26cd146108eb578063cd0237b51461060f578063cf1af47914610572578063d0d3a6cd146104c5578063de74e57b1461033b578063f0f44260146102315763f2fde38b1461013a57600080fd5b3461022c5760207ffffffffffffffffffffffffffffffffffffffffffffffffffffffffffffffffc36011261022c5773ffffffffffffffffffffffffffffffffffffffff61018661383a565b61018e613e37565b1680156101fd5773ffffffffffffffffffffffffffffffffffffffff600054827fffffffffffffffffffffffff0000000000000000000000000000000000000000821617600055167f8be0079c531659141344cd1fd0a4f28419497f9722a3daafe3b4186f6b6457e0600080a3005b7f1e4fbdf700000000000000000000000000000000000000000000000000000000600052600060045260246000fd5b600080fd5b3461022c5760207ffffffffffffffffffffffffffffffffffffffffffffffffffffffffffffffffc36011261022c5773ffffffffffffffffffffffffffffffffffffffff61027d61383a565b610285613e37565b1680156102dd57807fffffffffffffffffffffffff000000000000000000000000000000000000000060045416176004557f7dae230f18360d76a040c81f050aa14eb9d6dc7901b20fc5d855e2a20fe814d1600080a2005b60646040517f08c379a000000000000000000000000000000000000000000000000000000000815260206004820152600a60248201527f74726561737572793d30000000000000000000000000000000000000000000006044820152fd5b3461022c5760207ffffffffffffffffffffffffffffffffffffffffffffffffffffffffffffffffc36011261022c5760043560005260086020526040600020805473ffffffffffffffffffffffffffffffffffffffff1660405191828060018301906103a69161398d565b036103b19084613a2f565b60405190816103c3816002840161398d565b036103ce9083613a2f565b604051806103df816003850161398d565b036103ea9082613a2f565b600482015473ffffffffffffffffffffffffffffffffffffffff16906005830154600684015490600785015492604051958680600883019061042b9161398d565b036104369088613a2f565b6009015460ff1696604051998a998a5260208a0161016090526101608a0161045d9161388b565b89810360408b015261046e9161388b565b88810360608a015261047f9161388b565b93608088015260a087015260ff811660c087015260081c60ff16151560e08601526101008501528381036101208501526104b89161388b565b9015156101408301520390f35b3461022c5760207ffffffffffffffffffffffffffffffffffffffffffffffffffffffffffffffffc36011261022c57600435600052600c602052604060002060405190816020825491828152019160005260206000209060005b818110610546576105428561053681870382613a2f565b604051918291826138ea565b0390f35b825473ffffffffffffffffffffffffffffffffffffffff1684526020909301926001928301920161051f565b3461022c5760207ffffffffffffffffffffffffffffffffffffffffffffffffffffffffffffffffc36011261022c57600435600052600a602052604060002060405190816020825491828152019160005260206000209060005b8181106105e3576105428561053681870382613a2f565b825473ffffffffffffffffffffffffffffffffffffffff168452602090930192600192830192016105cc565b3461022c5760407ffffffffffffffffffffffffffffffffffffffffffffffffffffffffffffffffc36011261022c5760043573ffffffffffffffffffffffffffffffffffffffff61065e613817565b1690811561088d5780600052600960205260406000208054600052600860205273ffffffffffffffffffffffffffffffffffffffff60016040600020920154163314801561086d575b1561080f5781600052600c60205260ff60066040600020549201541611156107b15780600052600c602052604060002080549068010000000000000000821015610782576001820180825582101561075357600052602060002001827fffffffffffffffffffffffff000000000000000000000000000000000000000082541617905533907f59d4a11178828a7b001dc9e0af1038ca12f97492c768bc78198c96a31bcf3a2e600080a4005b7f4e487b7100000000000000000000000000000000000000000000000000000000600052603260045260246000fd5b7f4e487b7100000000000000000000000000000000000000000000000000000000600052604160045260246000fd5b60646040517f08c379a000000000000000000000000000000000000000000000000000000000815260206004820152600a60248201527f6d617820677565737473000000000000000000000000000000000000000000006044820152fd5b60646040517f08c379a000000000000000000000000000000000000000000000000000000000815260206004820152600e60248201527f6e6f7420617574686f72697a65640000000000000000000000000000000000006044820152fd5b5073ffffffffffffffffffffffffffffffffffffffff81541633146106a7565b60646040517f08c379a000000000000000000000000000000000000000000000000000000000815260206004820152600760248201527f67756573743d30000000000000000000000000000000000000000000000000006044820152fd5b3461022c5760007ffffffffffffffffffffffffffffffffffffffffffffffffffffffffffffffffc36011261022c576020600754604051908152f35b3461022c5760207ffffffffffffffffffffffffffffffffffffffffffffffffffffffffffffffffc36011261022c576004356bffffffffffffffffffffffff81169081810361022c57610978613e37565b6103e882116109f3577fd5871fa48f881865abc459496534904a2e1d9e83d984c1b23ed578fb1324de4c9160209173ffffffffffffffffffffffffffffffffffffffff7fffffffffffffffffffffffff00000000000000000000000000000000000000006004549260a01b16911617600455604051908152a1005b60646040517f08c379a000000000000000000000000000000000000000000000000000000000815260206004820152600c60248201527f66656520746f6f206869676800000000000000000000000000000000000000006044820152fd5b3461022c5760007ffffffffffffffffffffffffffffffffffffffffffffffffffffffffffffffffc36011261022c576020600654604051908152f35b3461022c5760007ffffffffffffffffffffffffffffffffffffffffffffffffffffffffffffffffc36011261022c57602073ffffffffffffffffffffffffffffffffffffffff60005416604051908152f35b3461022c5760407ffffffffffffffffffffffffffffffffffffffffffffffffffffffffffffffffc36011261022c576004356024358015159081810361022c577f0daada2c4ff290152ec4d4be92d918c068eed1a7471150f603a4658bacc325a791610ba9602092856000526008845260096040600020610b7873ffffffffffffffffffffffffffffffffffffffff8254163314613a70565b019060ff7fffffffffffffffffffffffffffffffffffffffffffffffffffffffffffffff0083541691151516179055565b604051908152a2005b3461022c5760007ffffffffffffffffffffffffffffffffffffffffffffffffffffffffffffffffc36011261022c57610c8b610c0d7f0000000000000000000000000000000000000000000000000000000000000000613f4d565b610c367f0000000000000000000000000000000000000000000000000000000000000000613fe9565b6020610c9960405192610c498385613a2f565b6000845260003681376040519586957f0f00000000000000000000000000000000000000000000000000000000000000875260e08588015260e087019061388b565b90858203604087015261388b565b466060850152306080850152600060a085015283810360c085015281808451928381520193019160005b828110610cd257505050500390f35b835185528695509381019392810192600101610cc3565b3461022c576101207ffffffffffffffffffffffffffffffffffffffffffffffffffffffffffffffffc36011261022c5760043567ffffffffffffffff811161022c57610d3990369060040161385d565b9060243567ffffffffffffffff811161022c57610d5a90369060040161385d565b60e0529060443567ffffffffffffffff811161022c57610d7e90369060040161385d565b610160526101005260643560a081905273ffffffffffffffffffffffffffffffffffffffff8116900361022c5760a43560c081905260ff8116900361022c5760e43567ffffffffffffffff811161022c57610ddd90369060040161385d565b90610140529260006080526101043560805260805115156080510361022c57610e1f73ffffffffffffffffffffffffffffffffffffffff60a051161515613ae8565b610e2c6084351515613b4d565b610e37600654613d47565b610120526101205160065561012051600052600860205260406000206101805273ffffffffffffffffffffffffffffffffffffffff33167fffffffffffffffffffffffff000000000000000000000000000000000000000061018051541617610180515567ffffffffffffffff811161078257610eba600161018051015461393a565b601f8111611704575b50806000601f821160011461163a5760009161162f575b508160011b907fffffffffffffffffffffffffffffffffffffffffffffffffffffffffffffffff8360031b1c19161760016101805101555b67ffffffffffffffff60e0511161078257610f33600261018051015461393a565b601f81116115f3575b506000601f60e051116001146115225760009060e051611517575b5060e05160011b907fffffffffffffffffffffffffffffffffffffffffffffffffffffffffffffffff60e05160031b1c19161760026101805101555b67ffffffffffffffff610160511161078257610fb5600361018051015461393a565b601f81116114d9575b506000601f61016051116001146113fe57600090610160516113f0575b506101605160011b907fffffffffffffffffffffffffffffffffffffffffffffffffffffffffffffffff6101605160031b1c19161760036101805101555b6004610180510173ffffffffffffffffffffffffffffffffffffffff60a051167fffffffffffffffffffffffff000000000000000000000000000000000000000082541617905560843560056101805101556006610180510160ff60c051167fffffffffffffffffffffffffffffffffffffffffffffffffffffffffffffff008254161781556101007fffffffffffffffffffffffffffffffffffffffffffffffffffffffffffff00ff82541617905560c435600761018051015567ffffffffffffffff8411610782576110f3600861018051015461393a565b601f81116113ad575b50836000601f82116001146112d357916111ac9391611199936000916112c5575b508660011b907fffffffffffffffffffffffffffffffffffffffffffffffffffffffffffffffff8860031b1c19161760086101805101555b611192608051600961018051019060ff7fffffffffffffffffffffffffffffffffffffffffffffffffffffffffffffff0083541691151516179055565b3691613c03565b6020815191012091369060e05190613c03565b6020815191012090604051917facb0fe889bf3a801ed7b1483fe0bee31783aff44e211bb20facb1227eddcacef73ffffffffffffffffffffffffffffffffffffffff60a051169380611233339561012051956080519160c0519160843591869360809360ff9297969360a08701988752602087015260408601521660608401521515910152565b0390a4604051602081527f1e67fdd3a6f163fef00233b805a42b8ac21947c0e934b68c7d5b357ea866e23b610120519180611278602082016101605161010051613c3a565b0390a27fdef8cfc084eaf3c0407d2bd57ea8042c039d5c99dd1152f2935cc1b31c3b707a604051806112b561012051946101405160c43584613d83565b0390a26020604051610120518152f35b90506101405101358761111d565b610180516008018152602081209150805b7fffffffffffffffffffffffffffffffffffffffffffffffffffffffffffffffe0871681106113925750916111ac939161119993877fffffffffffffffffffffffffffffffffffffffffffffffffffffffffffffffe0811610611357575b5050600186811b016008610180510155611155565b7fffffffffffffffffffffffffffffffffffffffffffffffffffffffffffffffff60f88960031b161c19906101405101351690558680611342565b909160206001819285610140510135815501930191016112e4565b6113e090600861018051016000526020600020601f870160051c810191602088106113e6575b601f0160051c0190613bb2565b846110fc565b90915081906113d3565b905061010051013585610fdb565b6003610180510181526020812090805b7fffffffffffffffffffffffffffffffffffffffffffffffffffffffffffffffe0610160511681106114be5750610160517fffffffffffffffffffffffffffffffffffffffffffffffffffffffffffffffe0811610611480575b5050600161016051811b016003610180510155611019565b7fffffffffffffffffffffffffffffffffffffffffffffffffffffffffffffffff60f86101605160031b161c19906101005101351690558480611468565b9091602060018192856101005101358155019301910161140e565b61151190600361018051016000526020600020601f610160510160051c810191602061016051106113e657601f0160051c0190613bb2565b84610fbe565b905083013585610f57565b6002610180510181526020812090805b7fffffffffffffffffffffffffffffffffffffffffffffffffffffffffffffffe060e0511681106115db575060e0517fffffffffffffffffffffffffffffffffffffffffffffffffffffffffffffffe08116106115a1575b5050600160e051811b016002610180510155610f93565b7fffffffffffffffffffffffffffffffffffffffffffffffffffffffffffffffff60f860e05160031b161c1990850135169055848061158a565b90916020600181928589013581550193019101611532565b61162990600261018051016000526020600020601f60e0510160051c810191602060e051106113e657601f0160051c0190613bb2565b84610f3c565b905082013585610eda565b610180516001018152602081209150805b7fffffffffffffffffffffffffffffffffffffffffffffffffffffffffffffffe0841681106116ec5750827fffffffffffffffffffffffffffffffffffffffffffffffffffffffffffffffe08116106116b4575b5050600181811b016001610180510155610f12565b7fffffffffffffffffffffffffffffffffffffffffffffffffffffffffffffffff60f88460031b161c1990840135169055848061169f565b9091602060018192858801358155019301910161164b565b61173690600161018051016000526020600020601f840160051c810191602085106113e657601f0160051c0190613bb2565b84610ec3565b3461022c5760607ffffffffffffffffffffffffffffffffffffffffffffffffffffffffffffffffc36011261022c5760243560043560443567ffffffffffffffff811161022c5761179190369060040161385d565b92826000526008602052600860406000206117c473ffffffffffffffffffffffffffffffffffffffff8254163314613a70565b8260078201550167ffffffffffffffff8511610782576117e4815461393a565b601f811161193f575b506000601f861160011461187a579461186a91817fdef8cfc084eaf3c0407d2bd57ea8042c039d5c99dd1152f2935cc1b31c3b707a969760009161186f575b508260011b907fffffffffffffffffffffffffffffffffffffffffffffffffffffffffffffffff8460031b1c19161790555b60405193849384613d83565b0390a2005b90508501358861182c565b81815260208120907fffffffffffffffffffffffffffffffffffffffffffffffffffffffffffffffe08716815b81811061192757509161186a9391887fdef8cfc084eaf3c0407d2bd57ea8042c039d5c99dd1152f2935cc1b31c3b707a989994106118ef575b5050600182811b01905561185e565b7fffffffffffffffffffffffffffffffffffffffffffffffffffffffffffffffff60f88560031b161c199087013516905587806118e0565b9192602060018192868a0135815501940192016118a7565b61196b90826000526020600020601f880160051c810191602089106113e657601f0160051c0190613bb2565b856117ed565b3461022c5760407ffffffffffffffffffffffffffffffffffffffffffffffffffffffffffffffffc36011261022c576024356004356119ae613d9d565b80600052600960205260406000206003810190815415611bea578315611b8c57600581019060ff825416611b2e5780600491546000526008602052611a6d73ffffffffffffffffffffffffffffffffffffffff836040600020611a1a60ff600683015460081c16613c79565b015416604051907f23b872dd00000000000000000000000000000000000000000000000000000000602083015233602483015230604483015288606483015260648252611a68608483613a2f565b613e86565b0190815491858301809311611aff5782905560009254821015611aca575b506040519384526020840152151560408301527fcf88589c0964842bfaf50927ce8c7f6225ef47074d53cb5a6a64901d67e8a32460603393a360018055005b90915060017fffffffffffffffffffffffffffffffffffffffffffffffffffffffffffffff0082541617905560019084611a8b565b7f4e487b7100000000000000000000000000000000000000000000000000000000600052601160045260246000fd5b60646040517f08c379a000000000000000000000000000000000000000000000000000000000815260206004820152600e60248201527f616c7265616479206163746976650000000000000000000000000000000000006044820152fd5b60646040517f08c379a000000000000000000000000000000000000000000000000000000000815260206004820152600860248201527f616d6f756e743d300000000000000000000000000000000000000000000000006044820152fd5b60646040517f08c379a000000000000000000000000000000000000000000000000000000000815260206004820152600f60248201527f626164207265736572766174696f6e00000000000000000000000000000000006044820152fd5b3461022c5760007ffffffffffffffffffffffffffffffffffffffffffffffffffffffffffffffffc36011261022c57611c7f613e37565b600073ffffffffffffffffffffffffffffffffffffffff81547fffffffffffffffffffffffff000000000000000000000000000000000000000081168355167f8be0079c531659141344cd1fd0a4f28419497f9722a3daafe3b4186f6b6457e08280a3005b3461022c5760207ffffffffffffffffffffffffffffffffffffffffffffffffffffffffffffffffc36011261022c57600435600052600d602052602060ff604060002054166040519015158152f35b3461022c5760007ffffffffffffffffffffffffffffffffffffffffffffffffffffffffffffffffc36011261022c57602073ffffffffffffffffffffffffffffffffffffffff60045416604051908152f35b3461022c5760207ffffffffffffffffffffffffffffffffffffffffffffffffffffffffffffffffc36011261022c5773ffffffffffffffffffffffffffffffffffffffff611dd161383a565b611dd9613e37565b168015611e3157807fffffffffffffffffffffffff000000000000000000000000000000000000000060055416176005557fd24015cc99cc1700cafca3042840a1d8ac1e3964fd2e0e37ea29c654056ee327600080a2005b60646040517f08c379a000000000000000000000000000000000000000000000000000000000815260206004820152600a60248201527f76657269666965723d30000000000000000000000000000000000000000000006044820152fd5b3461022c5760007ffffffffffffffffffffffffffffffffffffffffffffffffffffffffffffffffc36011261022c57602060045460a01c604051908152f35b3461022c5760007ffffffffffffffffffffffffffffffffffffffffffffffffffffffffffffffffc36011261022c57602073ffffffffffffffffffffffffffffffffffffffff60055416604051908152f35b3461022c5760207ffffffffffffffffffffffffffffffffffffffffffffffffffffffffffffffffc36011261022c57600435600052600b602052604060002060405190818260208354928381520180936000526020600020926000905b80600f8301106121cf576120169454918181106121ba575b8181106121a2575b81811061218b575b818110612173575b81811061215b575b818110612143575b81811061212b575b818110612113575b8181106120fb575b8181106120e3575b8181106120cb575b8181106120b3575b81811061209b575b818110612083575b81811061206b575b1061205d575b509392930382613a2f565b6040519182916020830190602084525180915260408301919060005b818110612040575050500390f35b825161ffff16845285945060209384019390920191600101612032565b60f01c81526020018561200b565b92602060019161ffff8560e01c168152019301612005565b92602060019161ffff8560d01c168152019301611ffd565b92602060019161ffff8560c01c168152019301611ff5565b92602060019161ffff8560b01c168152019301611fed565b92602060019161ffff8560a01c168152019301611fe5565b92602060019161ffff8560901c168152019301611fdd565b92602060019161ffff8560801c168152019301611fd5565b92602060019161ffff8560701c168152019301611fcd565b92602060019161ffff8560601c168152019301611fc5565b92602060019161ffff8560501c168152019301611fbd565b92602060019161ffff8560401c168152019301611fb5565b92602060019161ffff8560301c168152019301611fad565b92602060019161ffff85831c168152019301611fa5565b92602060019161ffff8560101c168152019301611f9d565b92602060019161ffff85168152019301611f95565b916010919350610200600191865461ffff8116825261ffff81861c16602083015261ffff8160201c16604083015261ffff8160301c16606083015261ffff8160401c16608083015261ffff8160501c1660a083015261ffff8160601c1660c083015261ffff8160701c1660e083015261ffff8160801c1661010083015261ffff8160901c1661012083015261ffff8160a01c1661014083015261ffff8160b01c1661016083015261ffff8160c01c1661018083015261ffff8160d01c166101a083015261ffff8160e01c166101c083015260f01c6101e0820152019401920185929391611f7d565b3461022c5760407ffffffffffffffffffffffffffffffffffffffffffffffffffffffffffffffffc36011261022c5760043567ffffffffffffffff811161022c578060040160c07ffffffffffffffffffffffffffffffffffffffffffffffffffffffffffffffffc833603011261022c5760243567ffffffffffffffff811161022c578036039060607ffffffffffffffffffffffffffffffffffffffffffffffffffffffffffffffffc83011261022c5782359081600052600860205260406000209361238d60ff600687015460081c16613c79565b6064860135918215612db05760448701906123a782613cde565b95602489019667ffffffffffffffff806123c08a613cde565b1691161115612d525760ff6009890154166129bf575b5050608487019060a46123e98385613cf3565b99905001946123f88685613cf3565b8099919a14806129b6575b1561295857600097885b8a8a10156124335760019061ffff6124298e8d60051b01613d74565b160199019861240d565b612710036128fa5760039161254061244c600754613d47565b988960075589600052600960205260056040600020938785556001850173ffffffffffffffffffffffffffffffffffffffff33167fffffffffffffffffffffffff00000000000000000000000000000000000000008254161781556124b087613cde565b7fffffffff0000000000000000ffffffffffffffffffffffffffffffffffffffff7bffffffffffffffff000000000000000000000000000000000000000083549260a01b16911617905561250389613cde565b67ffffffffffffffff6002870191167fffffffffffffffffffffffffffffffffffffffffffffffff00000000000000008254161790550154613ad5565b928391015561254f8587613cf3565b88600052600a60205260406000209167ffffffffffffffff8211610782576801000000000000000082116107825782548284558083106128dc575b50916000526020600020916000905b8282106128aa57505050506125ae8887613cf3565b88600052600b60205260406000209167ffffffffffffffff82116107825768010000000000000000821161078257825482845580831061281b575b509160005260206000208160041c9160005b8381106127ce57507ffffffffffffffffffffffffffffffffffffffffffffffffffffffffffffffff08116900380612770575b505050509161269a939167ffffffffffffffff61265a6126546126a298969b999b613cde565b94613cde565b81604051951685521660208401526040830152867f9f6e127a4875ff02824b662401dfd5439ff5293e3a71f9ae94a418b12be8ead960603394a485613cf3565b929094613cf3565b909160405194816040870160408852526060860190916000905b80821061273957505060209150858103828701528281520191906000905b80821061271357602085807f63f16468cc4c6e98f8e419d107f3e62f64a01229a3037a151e7cbe913f179c698988038aa2604051908152f35b90919283359061ffff821680920361022c576020816001938293520194019201906126da565b909183359073ffffffffffffffffffffffffffffffffffffffff821680920361022c579081526020938401930191600101906126bc565b9260009360005b8181106127985750505001558167ffffffffffffffff61265a61265461262e565b90919460206127c46001926127ac89613d74565b9085851b61ffff809160031b9316831b921b19161790565b9601929101612777565b6000805b601081106127e75750838201556001016125fb565b959060206128126001926127fa85613d74565b908a851b61ffff809160031b9316831b921b19161790565b920196016127d2565b61284c90846000526020600020600f80860160041c820192601e8760011b1680612852575b500160041c0190613bb2565b8b6125e9565b7fffffffffffffffffffffffffffffffffffffffffffffffffffffffffffffffff8501907fffffffffffffffffffffffffffffffffffffffffffffffffffffffffffffffff82549160200360031b1c16905538612840565b80359173ffffffffffffffffffffffffffffffffffffffff8316830361022c5760206001920192818601550190612599565b6128f490846000528360206000209182019101613bb2565b8b61258a565b60646040517f08c379a000000000000000000000000000000000000000000000000000000000815260206004820152600960248201527f627073213d3130302500000000000000000000000000000000000000000000006044820152fd5b60646040517f08c379a000000000000000000000000000000000000000000000000000000000815260206004820152600a60248201527f6261642073706c697473000000000000000000000000000000000000000000006044820152fd5b50881515612403565b8160040135907fffffffffffffffffffffffffffffffffffffffffffffffffffffffffffffffdd6044840135910181121561022c5782019160048301359267ffffffffffffffff841161022c5760240191833603831361022c5773ffffffffffffffffffffffffffffffffffffffff6005541615612cf457804211612c96576102584201804211611aff578111612c385760429160246040519160208301937f88c7becf8663c3985a7a1d00b0f5699fd0eea0b8b17626b6fe4e84140358a2d085523360408501528b60608501526080840152013560a082015260a08152612aa860c082613a2f565b519020612ab3614020565b90604051917f19010000000000000000000000000000000000000000000000000000000000008352600283015260228201522080600052600d60205260ff60406000205416612bda57612b45612b4b92612b549483600052600d602052604060002060017fffffffffffffffffffffffffffffffffffffffffffffffffffffffffffffff008254161790553691613c03565b90614149565b90929192614185565b73ffffffffffffffffffffffffffffffffffffffff8060055416911603612b7c5787806123d6565b60646040517f08c379a000000000000000000000000000000000000000000000000000000000815260206004820152600d60248201527f626164207369676e6174757265000000000000000000000000000000000000006044820152fd5b60646040517f08c379a000000000000000000000000000000000000000000000000000000000815260206004820152600a60248201527f70726f6f662075736564000000000000000000000000000000000000000000006044820152fd5b60646040517f08c379a000000000000000000000000000000000000000000000000000000000815260206004820152600c60248201527f74746c20746f6f206c6f6e6700000000000000000000000000000000000000006044820152fd5b60646040517f08c379a000000000000000000000000000000000000000000000000000000000815260206004820152600d60248201527f70726f6f662065787069726564000000000000000000000000000000000000006044820152fd5b60646040517f08c379a000000000000000000000000000000000000000000000000000000000815260206004820152601060248201527f7665726966696572206e6f7420736574000000000000000000000000000000006044820152fd5b60646040517f08c379a000000000000000000000000000000000000000000000000000000000815260206004820152600960248201527f62616420646174657300000000000000000000000000000000000000000000006044820152fd5b60646040517f08c379a000000000000000000000000000000000000000000000000000000000815260206004820152600860248201527f6e69676874733d300000000000000000000000000000000000000000000000006044820152fd5b3461022c576101007ffffffffffffffffffffffffffffffffffffffffffffffffffffffffffffffffc36011261022c5760243567ffffffffffffffff811161022c57612e5e90369060040161385d565b60443567ffffffffffffffff811161022c57612e7e90369060040161385d565b919060643567ffffffffffffffff811161022c57612ea090369060040161385d565b906101a052936084359073ffffffffffffffffffffffffffffffffffffffff8216820361022c5760c4359260ff8416840361022c5760e43591821515830361022c5760043560005260086020526040600020612f1473ffffffffffffffffffffffffffffffffffffffff8254163314613a70565b612f3573ffffffffffffffffffffffffffffffffffffffff86161515613ae8565b612f4260a4351515613b4d565b6001810167ffffffffffffffff881161078257612f5f815461393a565b601f81116134b7575b50876000601f82116001146134195760009161340e575b508860011b907fffffffffffffffffffffffffffffffffffffffffffffffffffffffffffffffff8a60031b1c19161790555b6002810167ffffffffffffffff891161078257612fce815461393a565b601f81116133dc575b50886000601f821160011461333e57600091613333575b508960011b907fffffffffffffffffffffffffffffffffffffffffffffffffffffffffffffffff8b60031b1c19161790555b67ffffffffffffffff89116107825761303c600382015461393a565b601f81116132fe575b50886000601f82116001146131eb579361315261319c9473ffffffffffffffffffffffffffffffffffffffff80989585613161967f84a317d4ce3e0e56e297d471ddb8d2950b28473f66329f01dd32633a86b320d69c9a6000916131dd575b507fffffffffffffffffffffffffffffffffffffffffffffffffffffffffffffffff8260011b9260031b1c19161760038201555b6004810180547fffffffffffffffffffffffff0000000000000000000000000000000000000000168a841617905560a43560058201556006810180547fffffffffffffffffffffffffffffffffffffffffffffffffffffffffffff00001660ff8e161788151560081b61ff001617905554169a3691613c03565b60208151910120993691613c03565b8051602091820120604080519a8b52918a015260a4359089015260ff90951660608801529315156080870152169360043592819060a0820190565b0390a47f1e67fdd3a6f163fef00233b805a42b8ac21947c0e934b68c7d5b357ea866e23b604051602081528061186a6004359460208301906101a051613c3a565b90506101a0510135386130a4565b6003830181526020812090805b7fffffffffffffffffffffffffffffffffffffffffffffffffffffffffffffffe0841681106132e0575061319c9473ffffffffffffffffffffffffffffffffffffffff8098956001867f84a317d4ce3e0e56e297d471ddb8d2950b28473f66329f01dd32633a86b320d69c9a9661315296827fffffffffffffffffffffffffffffffffffffffffffffffffffffffffffffffe06131619b16106132a5575b5050811b0160038201556130d8565b7fffffffffffffffffffffffffffffffffffffffffffffffffffffffffffffffff60f88460031b161c19906101a05101351690553880613296565b6101a05182013583558c9350600190920191602091820191016131f8565b61332d90600383016000526020600020601f8c0160051c81019160208d106113e657601f0160051c0190613bb2565b89613045565b90508401358b612fee565b82815260208120918b907fffffffffffffffffffffffffffffffffffffffffffffffffffffffffffffffe016825b8181106133c1575010613389575b5050600189811b019055613020565b7fffffffffffffffffffffffffffffffffffffffffffffffffffffffffffffffff60f88c60031b161c19908601351690558a8061337a565b8884013585556001909401936020938401938e93500161336c565b61340890826000526020600020601f8c0160051c81019160208d106113e657601f0160051c0190613bb2565b8a612fd7565b90508301358b612f7f565b82815260208120918a907fffffffffffffffffffffffffffffffffffffffffffffffffffffffffffffffe016825b81811061349c575010613464575b5050600188811b019055612fb1565b7fffffffffffffffffffffffffffffffffffffffffffffffffffffffffffffffff60f88b60031b161c19908501351690558a80613455565b8784013585556001909401936020938401938d935001613447565b6134e390826000526020600020601f8b0160051c81019160208c106113e657601f0160051c0190613bb2565b8a612f68565b3461022c5760207ffffffffffffffffffffffffffffffffffffffffffffffffffffffffffffffffc36011261022c57600435600052600960205260e0604060002080549060018101549067ffffffffffffffff60028201541660038201549067ffffffffffffffff60ff60056004860154950154169460405196875273ffffffffffffffffffffffffffffffffffffffff8116602088015260a01c1660408601526060850152608084015260a0830152151560c0820152f35b3461022c5760407ffffffffffffffffffffffffffffffffffffffffffffffffffffffffffffffffc36011261022c576004356135dc613817565b906135e5613d9d565b73ffffffffffffffffffffffffffffffffffffffff82169182156137b9578160005260096020526040600020908154600052600860205260406000209161364473ffffffffffffffffffffffffffffffffffffffff8454163314613a70565b60ff6005820154161561375b5760040180549081156136fd5760009055600454926127106136758560a01c84613ad5565b0490818303928311611aff578260409473ffffffffffffffffffffffffffffffffffffffff60046136d3947f3dbb1a26f29aef1264c12ca1285deb60cca5666d8b17100c7ea1602c0a4014f69987806136e4575b5050015416613dd8565b82519182526020820152a360018055005b828401546136f6928616908616613dd8565b8c876136c9565b60646040517f08c379a000000000000000000000000000000000000000000000000000000000815260206004820152601360248201527f6e6f7468696e6720746f207769746864726177000000000000000000000000006044820152fd5b60646040517f08c379a000000000000000000000000000000000000000000000000000000000815260206004820152600a60248201527f6e6f7420616374697665000000000000000000000000000000000000000000006044820152fd5b60646040517f08c379a000000000000000000000000000000000000000000000000000000000815260206004820152600460248201527f746f3d30000000000000000000000000000000000000000000000000000000006044820152fd5b6024359073ffffffffffffffffffffffffffffffffffffffff8216820361022c57565b6004359073ffffffffffffffffffffffffffffffffffffffff8216820361022c57565b9181601f8401121561022c5782359167ffffffffffffffff831161022c576020838186019501011161022c57565b919082519283825260005b8481106138d55750507fffffffffffffffffffffffffffffffffffffffffffffffffffffffffffffffe0601f8460006020809697860101520116010190565b80602080928401015182828601015201613896565b602060408183019282815284518094520192019060005b81811061390e5750505090565b825173ffffffffffffffffffffffffffffffffffffffff16845260209384019390920191600101613901565b90600182811c92168015613983575b602083101461395457565b7f4e487b7100000000000000000000000000000000000000000000000000000000600052602260045260246000fd5b91607f1691613949565b6000929181549161399d8361393a565b80835292600181169081156139f357506001146139b957505050565b60009081526020812093945091925b8383106139d9575060209250010190565b6001816020929493945483858701015201910191906139c8565b905060209495507fffffffffffffffffffffffffffffffffffffffffffffffffffffffffffffff0091509291921683830152151560051b010190565b90601f7fffffffffffffffffffffffffffffffffffffffffffffffffffffffffffffffe0910116810190811067ffffffffffffffff82111761078257604052565b15613a7757565b60646040517f08c379a000000000000000000000000000000000000000000000000000000000815260206004820152600b60248201527f6e6f74206275696c6465720000000000000000000000000000000000000000006044820152fd5b81810292918115918404141715611aff57565b15613aef57565b60646040517f08c379a000000000000000000000000000000000000000000000000000000000815260206004820152600760248201527f746f6b656e3d30000000000000000000000000000000000000000000000000006044820152fd5b15613b5457565b60646040517f08c379a000000000000000000000000000000000000000000000000000000000815260206004820152600660248201527f726174653d3000000000000000000000000000000000000000000000000000006044820152fd5b818110613bbd575050565b60008155600101613bb2565b67ffffffffffffffff811161078257601f017fffffffffffffffffffffffffffffffffffffffffffffffffffffffffffffffe01660200190565b929192613c0f82613bc9565b91613c1d6040519384613a2f565b82948184528183011161022c578281602093846000960137010152565b601f82602094937fffffffffffffffffffffffffffffffffffffffffffffffffffffffffffffffe0938186528686013760008582860101520116010190565b15613c8057565b60646040517f08c379a000000000000000000000000000000000000000000000000000000000815260206004820152601060248201527f6c697374696e6720696e616374697665000000000000000000000000000000006044820152fd5b3567ffffffffffffffff8116810361022c5790565b9035907fffffffffffffffffffffffffffffffffffffffffffffffffffffffffffffffe18136030182121561022c570180359067ffffffffffffffff821161022c57602001918160051b3603831361022c57565b7fffffffffffffffffffffffffffffffffffffffffffffffffffffffffffffffff8114611aff5760010190565b3561ffff8116810361022c5790565b604090613d9a949281528160208201520191613c3a565b90565b600260015414613dae576002600155565b7f3ee5aeb50000000000000000000000000000000000000000000000000000000060005260046000fd5b613e359273ffffffffffffffffffffffffffffffffffffffff604051937fa9059cbb000000000000000000000000000000000000000000000000000000006020860152166024840152604483015260448252611a68606483613a2f565b565b73ffffffffffffffffffffffffffffffffffffffff600054163303613e5857565b7f118cdaa7000000000000000000000000000000000000000000000000000000006000523360045260246000fd5b60008073ffffffffffffffffffffffffffffffffffffffff613ede93169360208151910182865af13d15613f45573d90613ebf82613bc9565b91613ecd6040519384613a2f565b82523d6000602084013e5b83614313565b8051908115159182613f21575b5050613ef45750565b7f5274afe70000000000000000000000000000000000000000000000000000000060005260045260246000fd5b819250906020918101031261022c576020015180159081150361022c573880613eeb565b606090613ed8565b60ff8114613fcf5760ff811690601f8211613fa5576040805192613f718285613a2f565b602084527fffffffffffffffffffffffffffffffffffffffffffffffffffffffffffffffe060208501920136833783525290565b7fb3512b0c0000000000000000000000000000000000000000000000000000000060005260046000fd5b50604051613d9a81613fe281600261398d565b0382613a2f565b60ff811461400d5760ff811690601f8211613fa5576040805192613f718285613a2f565b50604051613d9a81613fe281600361398d565b73ffffffffffffffffffffffffffffffffffffffff7f000000000000000000000000000000000000000000000000000000000000000016301480614120575b15614088577f000000000000000000000000000000000000000000000000000000000000000090565b60405160208101907f8b73c3c69bb8fe3d512ecc4cf759cc79239f7b179b0ffacaa9a75d522b39400f82527f000000000000000000000000000000000000000000000000000000000000000060408201527f000000000000000000000000000000000000000000000000000000000000000060608201524660808201523060a082015260a0815261411a60c082613a2f565b51902090565b507f0000000000000000000000000000000000000000000000000000000000000000461461405f565b815191906041830361417a5761417392506020820151906060604084015193015160001a90614271565b9192909190565b505060009160029190565b9190916004811015614242578061419b57509050565b6000600182036141cf577ff645eedf0000000000000000000000000000000000000000000000000000000060005260046000fd5b506002810361420657827ffce698f70000000000000000000000000000000000000000000000000000000060005260045260246000fd5b9091600360009214614216575050565b602492507fd78bce0c000000000000000000000000000000000000000000000000000000008252600452fd5b7f4e487b7100000000000000000000000000000000000000000000000000000000600052602160045260246000fd5b91907f7fffffffffffffffffffffffffffffff5d576e7357a4501ddfe92f46681b20a08411614307579160209360809260ff60009560405194855216868401526040830152606082015282805260015afa156142fb5760005173ffffffffffffffffffffffffffffffffffffffff8116156142ef5790600090600090565b50600090600190600090565b6040513d6000823e3d90fd5b50505060009160039190565b90614352575080511561432857805190602001fd5b7f1425ea420000000000000000000000000000000000000000000000000000000060005260046000fd5b815115806143a7575b614363575090565b73ffffffffffffffffffffffffffffffffffffffff907f9996b315000000000000000000000000000000000000000000000000000000006000521660045260246000fd5b50803b1561435b56fea26469706673582212205f1860d54d730b4ca3e82ddef81005161fdd8a6f890e23279aafaa1a05869c6464736f6c634300081e0033","linkReferences":{}},"methodIdentifiers":{"addGuest(uint256,address)":"cd0237b5","createListing(string,string,string,address,uint256,uint8,bytes32,string,bool)":"83babb2f","createReservation((uint256,uint64,uint64,uint256,address[],uint16[]),(uint256,uint256,bytes))":"1ea29c34","eip712Domain()":"84b0196e","fundReservation(uint256,uint256)":"77f281bf","getReservationGuests(uint256)":"d0d3a6cd","getReservationPayers(uint256)":"cf1af479","getReservationSplitsBps(uint256)":"2833643c","listings(uint256)":"de74e57b","nextListingId()":"aaccf1ec","nextReservationId()":"c70c26cd","owner()":"8da5cb5b","protocolFeeBps()":"35659fb8","renounceOwnership()":"715018a6","reservations(uint256)":"067cf832","setProtocolFeeBps(uint96)":"c5f0d916","setTreasury(address)":"f0f44260","setVerifier(address)":"5437988d","transferOwnership(address)":"f2fde38b","treasury()":"61d027b3","updateListing(uint256,string,string,string,address,uint256,uint8,bool)":"1bc773c7","updateListingPrivateData(uint256,bytes32,string)":"7b73ab00","updateListingRequireProof(uint256,bool)":"8ca95039","usedProof(bytes32)":"6e20ffbd","verifier()":"2b7ac3f3","withdraw(uint256,address)":"00f714ce"},"id":31}